{
  "address": "0xe7f1725E7734CE288F8367e1Bb143E90bb3F0512",
  "abi": [
    {
      "inputs": [
        {
          "internalType": "address",
          "name": "priceFeedAddress",
          "type": "address"
        }
      ],
      "stateMutability": "nonpayable",
      "type": "constructor"
    },
    {
      "inputs": [],
      "name": "CallFailed",
      "type": "error"
    },
    {
      "inputs": [],
      "name": "NotOwner",
      "type": "error"
    },
    {
      "inputs": [],
      "name": "SendedNotEnough",
      "type": "error"
    },
    {
      "stateMutability": "payable",
      "type": "fallback"
    },
    {
      "inputs": [],
      "name": "MINIMUM_USD",
      "outputs": [
        {
          "internalType": "uint256",
          "name": "",
          "type": "uint256"
        }
      ],
      "stateMutability": "view",
      "type": "function"
    },
    {
      "inputs": [
        {
          "internalType": "address",
          "name": "",
          "type": "address"
        }
      ],
      "name": "addressToAmountFunded",
      "outputs": [
        {
          "internalType": "uint256",
          "name": "",
          "type": "uint256"
        }
      ],
      "stateMutability": "view",
      "type": "function"
    },
    {
      "inputs": [],
      "name": "fund",
      "outputs": [],
      "stateMutability": "payable",
      "type": "function"
    },
    {
      "inputs": [
        {
          "internalType": "uint256",
          "name": "",
          "type": "uint256"
        }
      ],
      "name": "funders",
      "outputs": [
        {
          "internalType": "address",
          "name": "",
          "type": "address"
        }
      ],
      "stateMutability": "view",
      "type": "function"
    },
    {
      "inputs": [],
      "name": "i_owner",
      "outputs": [
        {
          "internalType": "address",
          "name": "",
          "type": "address"
        }
      ],
      "stateMutability": "view",
      "type": "function"
    },
    {
      "inputs": [],
      "name": "priceFeed",
      "outputs": [
        {
          "internalType": "contract AggregatorV3Interface",
          "name": "",
          "type": "address"
        }
      ],
      "stateMutability": "view",
      "type": "function"
    },
    {
      "inputs": [],
      "name": "withdraw",
      "outputs": [],
      "stateMutability": "nonpayable",
      "type": "function"
    },
    {
      "stateMutability": "payable",
      "type": "receive"
    }
  ],
  "transactionHash": "0x46ac90ec0d7f5de7dba10710d472f2867e4a4bb893318ffbcb0bc23e743b8125",
  "args": [
    "0x5FbDB2315678afecb367f032d93F642f64180aa3"
  ],
  "numDeployments": 1,
  "solcInputHash": "7002ad4d78f11a7f15e36a37cb810f57",
  "bytecode": "0x60a060405234801561001057600080fd5b50604051610e81380380610e8183398181016040528101906100329190610113565b3373ffffffffffffffffffffffffffffffffffffffff1660808173ffffffffffffffffffffffffffffffffffffffff1660601b8152505080600260006101000a81548173ffffffffffffffffffffffffffffffffffffffff021916908373ffffffffffffffffffffffffffffffffffffffff16021790555050610140565b600080fd5b600073ffffffffffffffffffffffffffffffffffffffff82169050919050565b60006100e0826100b5565b9050919050565b6100f0816100d5565b81146100fb57600080fd5b50565b60008151905061010d816100e7565b92915050565b600060208284031215610129576101286100b0565b5b6000610137848285016100fe565b91505092915050565b60805160601c610d1c610165600039600081816102ca015261054c0152610d1c6000f3fe6080604052600436106100745760003560e01c8063741bef1a1161004e578063741bef1a1461010c578063b60d428814610137578063dba6335f14610141578063dc0d3dff1461016c57610083565b80633ccfd60b1461008d5780633e47d6f3146100a45780636b69a592146100e157610083565b36610083576100816101a9565b005b61008b6101a9565b005b34801561009957600080fd5b506100a26102c8565b005b3480156100b057600080fd5b506100cb60048036038101906100c69190610793565b6104ff565b6040516100d891906107d9565b60405180910390f35b3480156100ed57600080fd5b506100f6610517565b60405161010391906107d9565b60405180910390f35b34801561011857600080fd5b50610121610524565b60405161012e9190610853565b60405180910390f35b61013f6101a9565b005b34801561014d57600080fd5b5061015661054a565b604051610163919061087d565b60405180910390f35b34801561017857600080fd5b50610193600480360381019061018e91906108c4565b61056e565b6040516101a0919061087d565b60405180910390f35b6802b5e3af16b18800006101e8600260009054906101000a900473ffffffffffffffffffffffffffffffffffffffff16346105ad90919063ffffffff16565b1161021f576040517f9dda9edf00000000000000000000000000000000000000000000000000000000815260040160405180910390fd5b6000339080600181540180825580915050600190039060005260206000200160009091909190916101000a81548173ffffffffffffffffffffffffffffffffffffffff021916908373ffffffffffffffffffffffffffffffffffffffff16021790555034600160003373ffffffffffffffffffffffffffffffffffffffff1673ffffffffffffffffffffffffffffffffffffffff16815260200190815260200160002081905550565b7f000000000000000000000000000000000000000000000000000000000000000073ffffffffffffffffffffffffffffffffffffffff163373ffffffffffffffffffffffffffffffffffffffff161461034d576040517f30cd747100000000000000000000000000000000000000000000000000000000815260040160405180910390fd5b60005b6000805490508110156103f8576000808281548110610372576103716108f1565b5b9060005260206000200160009054906101000a900473ffffffffffffffffffffffffffffffffffffffff1690506000600160008373ffffffffffffffffffffffffffffffffffffffff1673ffffffffffffffffffffffffffffffffffffffff168152602001908152602001600020819055505080806103f09061094f565b915050610350565b50600067ffffffffffffffff81111561041457610413610998565b5b6040519080825280602002602001820160405280156104425781602001602082028036833780820191505090505b5060009080519060200190610458929190610689565b5060003373ffffffffffffffffffffffffffffffffffffffff164760405161047f906109f8565b60006040518083038185875af1925050503d80600081146104bc576040519150601f19603f3d011682016040523d82523d6000602084013e6104c1565b606091505b50509050806104fc576040517f3204506f00000000000000000000000000000000000000000000000000000000815260040160405180910390fd5b50565b60016020528060005260406000206000915090505481565b6802b5e3af16b188000081565b600260009054906101000a900473ffffffffffffffffffffffffffffffffffffffff1681565b7f000000000000000000000000000000000000000000000000000000000000000081565b6000818154811061057e57600080fd5b906000526020600020016000915054906101000a900473ffffffffffffffffffffffffffffffffffffffff1681565b6000806105b9836105e9565b90506000670de0b6b3a764000085836105d29190610a0d565b6105dc9190610a96565b9050809250505092915050565b6000808273ffffffffffffffffffffffffffffffffffffffff1663feaf968c6040518163ffffffff1660e01b815260040160a06040518083038186803b15801561063257600080fd5b505afa158015610646573d6000803e3d6000fd5b505050506040513d601f19601f8201168201806040525081019061066a9190610b54565b5050509150506402540be400816106819190610bcf565b915050919050565b828054828255906000526020600020908101928215610702579160200282015b828111156107015782518260006101000a81548173ffffffffffffffffffffffffffffffffffffffff021916908373ffffffffffffffffffffffffffffffffffffffff160217905550916020019190600101906106a9565b5b50905061070f9190610713565b5090565b5b8082111561072c576000816000905550600101610714565b5090565b600080fd5b600073ffffffffffffffffffffffffffffffffffffffff82169050919050565b600061076082610735565b9050919050565b61077081610755565b811461077b57600080fd5b50565b60008135905061078d81610767565b92915050565b6000602082840312156107a9576107a8610730565b5b60006107b78482850161077e565b91505092915050565b6000819050919050565b6107d3816107c0565b82525050565b60006020820190506107ee60008301846107ca565b92915050565b6000819050919050565b600061081961081461080f84610735565b6107f4565b610735565b9050919050565b600061082b826107fe565b9050919050565b600061083d82610820565b9050919050565b61084d81610832565b82525050565b60006020820190506108686000830184610844565b92915050565b61087781610755565b82525050565b6000602082019050610892600083018461086e565b92915050565b6108a1816107c0565b81146108ac57600080fd5b50565b6000813590506108be81610898565b92915050565b6000602082840312156108da576108d9610730565b5b60006108e8848285016108af565b91505092915050565b7f4e487b7100000000000000000000000000000000000000000000000000000000600052603260045260246000fd5b7f4e487b7100000000000000000000000000000000000000000000000000000000600052601160045260246000fd5b600061095a826107c0565b91507fffffffffffffffffffffffffffffffffffffffffffffffffffffffffffffffff82141561098d5761098c610920565b5b600182019050919050565b7f4e487b7100000000000000000000000000000000000000000000000000000000600052604160045260246000fd5b600081905092915050565b50565b60006109e26000836109c7565b91506109ed826109d2565b600082019050919050565b6000610a03826109d5565b9150819050919050565b6000610a18826107c0565b9150610a23836107c0565b9250817fffffffffffffffffffffffffffffffffffffffffffffffffffffffffffffffff0483118215151615610a5c57610a5b610920565b5b828202905092915050565b7f4e487b7100000000000000000000000000000000000000000000000000000000600052601260045260246000fd5b6000610aa1826107c0565b9150610aac836107c0565b925082610abc57610abb610a67565b5b828204905092915050565b600069ffffffffffffffffffff82169050919050565b610ae681610ac7565b8114610af157600080fd5b50565b600081519050610b0381610add565b92915050565b6000819050919050565b610b1c81610b09565b8114610b2757600080fd5b50565b600081519050610b3981610b13565b92915050565b600081519050610b4e81610898565b92915050565b600080600080600060a08688031215610b7057610b6f610730565b5b6000610b7e88828901610af4565b9550506020610b8f88828901610b2a565b9450506040610ba088828901610b3f565b9350506060610bb188828901610b3f565b9250506080610bc288828901610af4565b9150509295509295909350565b6000610bda82610b09565b9150610be583610b09565b9250827f7fffffffffffffffffffffffffffffffffffffffffffffffffffffffffffffff0482116000841360008413161615610c2457610c23610920565b5b817f80000000000000000000000000000000000000000000000000000000000000000583126000841260008413161615610c6157610c60610920565b5b827f80000000000000000000000000000000000000000000000000000000000000000582126000841360008412161615610c9e57610c9d610920565b5b827f7fffffffffffffffffffffffffffffffffffffffffffffffffffffffffffffff0582126000841260008412161615610cdb57610cda610920565b5b82820290509291505056fea2646970667358221220bc0579344e87b0d01f07d8d1d54b5278f7a2ac7c0dcc73e27eebfacdf61ef27f64736f6c63430008080033",
  "devdoc": {
    "kind": "dev",
    "methods": {},
    "version": 1
  },
  "userdoc": {
    "kind": "user",
    "methods": {},
    "version": 1
  },
  "storageLayout": {
    "storage": [
      {
        "astId": 65,
        "contract": "contracts/FundMe.sol:FundMe",
        "label": "funders",
        "offset": 0,
        "slot": "0",
        "type": "t_array(t_address)dyn_storage"
      },
      {
        "astId": 69,
        "contract": "contracts/FundMe.sol:FundMe",
        "label": "addressToAmountFunded",
        "offset": 0,
        "slot": "1",
        "type": "t_mapping(t_address,t_uint256)"
      },
      {
        "astId": 74,
        "contract": "contracts/FundMe.sol:FundMe",
        "label": "priceFeed",
        "offset": 0,
        "slot": "2",
        "type": "t_contract(AggregatorV3Interface)45"
      }
    ],
    "types": {
      "t_address": {
        "encoding": "inplace",
        "label": "address",
        "numberOfBytes": "20"
      },
      "t_array(t_address)dyn_storage": {
        "base": "t_address",
        "encoding": "dynamic_array",
        "label": "address[]",
        "numberOfBytes": "32"
      },
      "t_contract(AggregatorV3Interface)45": {
        "encoding": "inplace",
        "label": "contract AggregatorV3Interface",
        "numberOfBytes": "20"
      },
      "t_mapping(t_address,t_uint256)": {
        "encoding": "mapping",
        "key": "t_address",
        "label": "mapping(address => uint256)",
        "numberOfBytes": "32",
        "value": "t_uint256"
      },
      "t_uint256": {
        "encoding": "inplace",
        "label": "uint256",
        "numberOfBytes": "32"
      }
    }
  }
}